:100000000C942A000C9447000C9447000C94470071
:100010000C9447000C9447000C9447000C94470044
:100020000C9447000C9447000C9447000C94470034
:100030000C9447000C9447000C9447000C94470024
:100040000C9447000C9447000C9447000C94470014
:100050000C94470011241FBECFE5D8E0DEBFCDBF12
:1000600010E0A0E6B0E0E4E0F1E002C005900D92FF
:10007000AE36B107D9F720E0AEE6B0E001C01D9280
:10008000A437B207E1F70E9449000C9480000C9459
:10009000000080E690E00E94500080E090E008952B
:1000A0000F931F93CF93DF93E0917000F091710055
:1000B000238121FF1BC08C01D0E0C0E0F8018191B9
:1000C0008F016091700070917100DB011896ED91C5
:1000D000FC911997882331F00995892B79F3DFEF8B
:1000E000CFEFECCF8AE00995892B19F08FEF9FEFC6
:1000F00002C08D2F9C2FDF91CF911F910F910895FA
:04010000F894FFCFA1
:0E01040048656C6C6F2C20576F726C64210084
:00000001FF
